{
  "title": "电商交易合约",
  "description": "通过上架商品,购买商品等功基本的电商功能",
  "contractName": "LinkMall",
  "abi": [
    {
      "constant": true,
      "inputs": [
        {
          "name": "",
          "type": "uint256"
        }
      ],
      "name": "_orders",
      "outputs": [
        {
          "name": "payer",
          "type": "address"
        }
      ],
      "payable": false,
      "stateMutability": "view",
      "type": "function"
    },
    {
      "constant": true,
      "inputs": [
        {
          "name": "",
          "type": "uint256"
        }
      ],
      "name": "_products",
      "outputs": [
        {
          "name": "name",
          "type": "bytes32"
        },
        {
          "name": "price",
          "type": "uint256"
        },
        {
          "name": "status",
          "type": "uint8"
        }
      ],
      "payable": false,
      "stateMutability": "view",
      "type": "function"
    },
    {
      "constant": true,
      "inputs": [],
      "name": "_owner",
      "outputs": [
        {
          "name": "",
          "type": "address"
        }
      ],
      "payable": false,
      "stateMutability": "view",
      "type": "function"
    },
    {
      "constant": false,
      "inputs": [
        {
          "name": "newOwner",
          "type": "address"
        }
      ],
      "name": "transferOwnership",
      "outputs": [],
      "payable": false,
      "stateMutability": "nonpayable",
      "type": "function"
    },
    {
      "inputs": [
        {
          "name": "owner",
          "type": "address"
        }
      ],
      "payable": false,
      "stateMutability": "nonpayable",
      "type": "constructor"
    },
    {
      "constant": false,
      "inputs": [
        {
          "name": "productid",
          "type": "uint256"
        },
        {
          "name": "name",
          "type": "bytes32"
        },
        {
          "name": "price",
          "type": "uint256"
        },
        {
          "name": "status",
          "type": "uint8"
        }
      ],
      "name": "setProduct",
      "outputs": [],
      "payable": false,
      "stateMutability": "nonpayable",
      "type": "function"
    },
    {
      "constant": true,
      "inputs": [
        {
          "name": "productid",
          "type": "uint256"
        }
      ],
      "name": "getProduct",
      "outputs": [
        {
          "name": "",
          "type": "bytes32"
        },
        {
          "name": "",
          "type": "uint256"
        },
        {
          "name": "",
          "type": "uint8"
        }
      ],
      "payable": false,
      "stateMutability": "view",
      "type": "function"
    },
    {
      "constant": false,
      "inputs": [
        {
          "name": "orderid",
          "type": "uint256"
        },
        {
          "name": "productid",
          "type": "uint256[]"
        },
        {
          "name": "count",
          "type": "uint16[]"
        }
      ],
      "name": "setOrder",
      "outputs": [],
      "payable": true,
      "stateMutability": "payable",
      "type": "function"
    },
    {
      "constant": true,
      "inputs": [
        {
          "name": "orderid",
          "type": "uint256"
        }
      ],
      "name": "getOrder",
      "outputs": [
        {
          "name": "",
          "type": "address"
        },
        {
          "name": "",
          "type": "uint256"
        }
      ],
      "payable": false,
      "stateMutability": "view",
      "type": "function"
    },
    {
      "constant": true,
      "inputs": [
        {
          "name": "orderid",
          "type": "uint256"
        },
        {
          "name": "i",
          "type": "uint256"
        }
      ],
      "name": "getOrderItem",
      "outputs": [
        {
          "name": "",
          "type": "uint256"
        },
        {
          "name": "",
          "type": "uint256"
        },
        {
          "name": "",
          "type": "uint16"
        }
      ],
      "payable": false,
      "stateMutability": "view",
      "type": "function"
    }
  ],
  "bytecode": "0x608060405234801561001057600080fd5b50604051602080610e868339810180604052810190808051906020019092919050505080806000806101000a81548173ffffffffffffffffffffffffffffffffffffffff021916908373ffffffffffffffffffffffffffffffffffffffff1602179055505050610e01806100856000396000f300608060405260043610610099576000357c0100000000000000000000000000000000000000000000000000000000900463ffffffff1680631c444f3b1461009e578063215b710514610144578063454ec581146101a55780634e5919ef146101f75780639be164d314610264578063b2bdfa7b146102c1578063b9db15b414610318578063d09ef24114610375578063f2fde38b146103e9575b600080fd5b61014260048036038101908080359060200190929190803590602001908201803590602001908080602002602001604051908101604052809392919081815260200183836020028082843782019150505050505091929192908035906020019082018035906020019080806020026020016040519081016040528093929190818152602001838360200280828437820191505050505050919291929050505061042c565b005b34801561015057600080fd5b506101796004803603810190808035906020019092919080359060200190929190505050610852565b604051808481526020018381526020018261ffff1661ffff168152602001935050505060405180910390f35b3480156101b157600080fd5b506101f560048036038101908080359060200190929190803560001916906020019092919080359060200190929190803560ff1690602001909291905050506108ef565b005b34801561020357600080fd5b50610222600480360381019080803590602001909291905050506109d6565b604051808273ffffffffffffffffffffffffffffffffffffffff1673ffffffffffffffffffffffffffffffffffffffff16815260200191505060405180910390f35b34801561027057600080fd5b5061028f60048036038101908080359060200190929190505050610a14565b6040518084600019166000191681526020018381526020018260ff1660ff168152602001935050505060405180910390f35b3480156102cd57600080fd5b506102d6610a4b565b604051808273ffffffffffffffffffffffffffffffffffffffff1673ffffffffffffffffffffffffffffffffffffffff16815260200191505060405180910390f35b34801561032457600080fd5b5061034360048036038101908080359060200190929190505050610a70565b6040518084600019166000191681526020018381526020018260ff1660ff168152602001935050505060405180910390f35b34801561038157600080fd5b506103a060048036038101908080359060200190929190505050610af4565b604051808373ffffffffffffffffffffffffffffffffffffffff1673ffffffffffffffffffffffffffffffffffffffff1681526020018281526020019250505060405180910390f35b3480156103f557600080fd5b5061042a600480360381019080803573ffffffffffffffffffffffffffffffffffffffff169060200190929190505050610c1e565b005b610434610d57565b6000806000610441610d87565b60648751108015610453575060008751115b8015610460575085518751145b151561046b57600080fd5b6002600089815260200190815260200160002060408051908101604052908160008201805480602002602001604051908101604052809291908181526020016000905b8282101561051557838290600052602060002090600302016060604051908101604052908160008201548152602001600182015481526020016002820160009054906101000a900461ffff1661ffff1661ffff1681525050815260200190600101906104ae565b5050505081526020016001820160009054906101000a900473ffffffffffffffffffffffffffffffffffffffff1673ffffffffffffffffffffffffffffffffffffffff1673ffffffffffffffffffffffffffffffffffffffff16815250509450600085600001515114151561058957600080fd5b6000935060009250600091505b86518210156107c857600086838151811015156105af57fe5b9060200190602002015161ffff161115156105c957600080fd5b6001600088848151811015156105db57fe5b90602001906020020151815260200190815260200160002060606040519081016040529081600082015460001916600019168152602001600182015481526020016002820160009054906101000a900460ff1660ff1660ff168152505090506000816040015160ff1611151561065057600080fd5b610682868381518110151561066157fe5b9060200190602002015161ffff168260200151610cf890919063ffffffff16565b92506106978385610d3690919063ffffffff16565b93506002600089815260200190815260200160002060000160606040519081016040528089858151811015156106c957fe5b9060200190602002015181526020018360200151815260200188858151811015156106f057fe5b9060200190602002015161ffff1681525090806001815401808255809150509060018203906000526020600020906003020160009091929091909150600082015181600001556020820151816001015560408201518160020160006101000a81548161ffff021916908361ffff16021790555050505033600260008a815260200190815260200160002060010160006101000a81548173ffffffffffffffffffffffffffffffffffffffff021916908373ffffffffffffffffffffffffffffffffffffffff1602179055508180600101925050610596565b34841415156107d657600080fd5b6000341115610848576000809054906101000a900473ffffffffffffffffffffffffffffffffffffffff1673ffffffffffffffffffffffffffffffffffffffff166108fc349081150290604051600060405180830381858888f19350505050158015610846573d6000803e3d6000fd5b505b5050505050505050565b600080600061085f610daf565b600260008781526020019081526020016000206000018581548110151561088257fe5b90600052602060002090600302016060604051908101604052908160008201548152602001600182015481526020016002820160009054906101000a900461ffff1661ffff1661ffff16815250509050806000015181602001518260400151935093509350509250925092565b6000809054906101000a900473ffffffffffffffffffffffffffffffffffffffff1673ffffffffffffffffffffffffffffffffffffffff163373ffffffffffffffffffffffffffffffffffffffff1614151561094a57600080fd5b60008160ff1611151561095c57600080fd5b606060405190810160405280846000191681526020018381526020018260ff1681525060016000868152602001908152602001600020600082015181600001906000191690556020820151816001015560408201518160020160006101000a81548160ff021916908360ff16021790555090505050505050565b60026020528060005260406000206000915090508060010160009054906101000a900473ffffffffffffffffffffffffffffffffffffffff16905081565b60016020528060005260406000206000915090508060000154908060010154908060020160009054906101000a900460ff16905083565b6000809054906101000a900473ffffffffffffffffffffffffffffffffffffffff1681565b6000806000610a7d610d87565b6001600086815260200190815260200160002060606040519081016040529081600082015460001916600019168152602001600182015481526020016002820160009054906101000a900460ff1660ff1660ff16815250509050806000015181602001518260400151935093509350509193909250565b600080610aff610d57565b6002600085815260200190815260200160002060408051908101604052908160008201805480602002602001604051908101604052809291908181526020016000905b82821015610ba957838290600052602060002090600302016060604051908101604052908160008201548152602001600182015481526020016002820160009054906101000a900461ffff1661ffff1661ffff168152505081526020019060010190610b42565b5050505081526020016001820160009054906101000a900473ffffffffffffffffffffffffffffffffffffffff1673ffffffffffffffffffffffffffffffffffffffff1673ffffffffffffffffffffffffffffffffffffffff1681525050905080602001518160000151519250925050915091565b6000809054906101000a900473ffffffffffffffffffffffffffffffffffffffff1673ffffffffffffffffffffffffffffffffffffffff163373ffffffffffffffffffffffffffffffffffffffff16141515610c7957600080fd5b600073ffffffffffffffffffffffffffffffffffffffff168173ffffffffffffffffffffffffffffffffffffffff1614151515610cb557600080fd5b806000806101000a81548173ffffffffffffffffffffffffffffffffffffffff021916908373ffffffffffffffffffffffffffffffffffffffff16021790555050565b6000806000841415610d0d5760009150610d2f565b8284029050828482811515610d1e57fe5b04141515610d2b57600080fd5b8091505b5092915050565b6000808284019050838110151515610d4d57600080fd5b8091505092915050565b604080519081016040528060608152602001600073ffffffffffffffffffffffffffffffffffffffff1681525090565b6060604051908101604052806000801916815260200160008152602001600060ff1681525090565b6060604051908101604052806000815260200160008152602001600061ffff16815250905600a165627a7a7230582026b6495447e4190b0b953567ac9d4892df87d8850ab15ecf553d77da7caf9b8c0029",
  "source": "pragma solidity ^0.4.19;\nimport \"openzeppelin-solidity/contracts/math/SafeMath.sol\";\n\ncontract Ownable {\n  address public _owner;\n\n  constructor(address owner) public {\n    _owner = owner;\n  }\n\n  modifier onlyOwner() {\n    require(msg.sender == _owner);\n    _;\n  }\n\n  function transferOwnership(address newOwner) public onlyOwner {\n    require(newOwner != address(0));\n    _owner = newOwner;\n  }\n}\n\n\ncontract LinkMall is Ownable {\n\n    using SafeMath for uint;\n\n  // 订单项\n    struct OrderItem {\n        uint productId;\n        // 下单时的商品单价\n        uint price;\n        uint16 count;\n    }\n\n    // 订单\n    struct Order {\n        OrderItem[] items;\n        address payer;\n    }\n\n \n    // 商品\n    struct Product {\n        bytes32 name;\n        uint price;\n        uint8 status;\n    }\n\n    // 保存商品信息(itemid => item)\n    mapping(uint => Product) public _products;\n\n    // 保存订单信息(orderid => item)\n    mapping(uint => Order) public _orders; \n\n    constructor(address owner) Ownable(owner) public {}\n\n    // 设置商品\n    function setProduct(uint productid, bytes32 name, uint price, uint8 status) onlyOwner public {\n      require(status > 0);\n      _products[productid] = Product({\n        name: name,\n        price: price,\n        status: status\n      });\n   }\n\n   // 查看商品\n    function getProduct(uint productid) view public returns (bytes32, uint, uint8) {\n      Product memory product = _products[productid];\n      return (product.name, product.price, product.status);\n    }\n\n    // 提交订单\n    function setOrder(uint orderid, uint[] productid, uint16[] count) payable public {\n      // 单个订单不能超过100种商品\n      require(productid.length < 100 && productid.length > 0 && productid.length == count.length);\n\n      // 防止重复支付\n      Order memory order = _orders[orderid];\n      require(order.items.length == 0);\n\n      uint totalPrice = 0;\n      uint productAmount = 0;\n\n      // 设置订单信息\n      for(uint i = 0; i < productid.length; i++) {\n        require(count[i] > 0);\n        Product memory product = _products[productid[i]];\n        require(product.status > 0);\n        productAmount = product.price.mul(count[i]);\n        totalPrice = totalPrice.add(productAmount);\n\n        _orders[orderid].items.push(OrderItem({\n          productId: productid[i],\n          price: product.price,\n          count: count[i]\n        }));\n        _orders[orderid].payer = msg.sender;\n      }\n\n      // 校验一下付款金额\n      require(totalPrice == msg.value);\n\n      // 转账给商家\n      if(msg.value > 0) {\n        _owner.transfer(msg.value);\n      }\n    }\n\n    // 查询订单\n    function getOrder(uint orderid) view public returns (address, uint) {\n      Order memory order = _orders[orderid];\n      return (order.payer, order.items.length);\n    }\n\n    // 查询订单项\n    function getOrderItem(uint orderid, uint i) view public returns (uint, uint, uint16) {\n      OrderItem memory item = _orders[orderid].items[i];\n      return (item.productId, item.price, item.count);\n    }\n}\n\n",
  "sourcePath": "/Users/luz/code/solidity/daopark-std/contracts/LinkMall.sol",
  "compiler": {
    "name": "solc",
    "version": "0.4.24+commit.e67f0147.Emscripten.clang"
  },
  "schemaVersion": "2.0.1",
  "updatedAt": "2018-11-26T08:54:34.418Z"
}