{
  "title": "抽奖合约",
  "description": "可添加选项,并对选项抽奖,可设置白名单,设置合约管理员等等",
  "contractName": "LotteryControl",
  "abi": [
    {
      "constant": true,
      "inputs": [],
      "name": "_owner",
      "outputs": [
        {
          "name": "",
          "type": "address"
        }
      ],
      "payable": false,
      "stateMutability": "view",
      "type": "function"
    },
    {
      "constant": false,
      "inputs": [
        {
          "name": "newOwner",
          "type": "address"
        }
      ],
      "name": "transferOwnership",
      "outputs": [],
      "payable": false,
      "stateMutability": "nonpayable",
      "type": "function"
    },
    {
      "inputs": [
        {
          "name": "owner",
          "type": "address"
        },
        {
          "name": "lotterDataAddr",
          "type": "address"
        }
      ],
      "payable": false,
      "stateMutability": "nonpayable",
      "type": "constructor"
    },
    {
      "constant": false,
      "inputs": [
        {
          "name": "admin",
          "type": "address"
        }
      ],
      "name": "addAdmin",
      "outputs": [],
      "payable": false,
      "stateMutability": "nonpayable",
      "type": "function"
    },
    {
      "constant": false,
      "inputs": [
        {
          "name": "admin",
          "type": "address"
        }
      ],
      "name": "removeAdmin",
      "outputs": [],
      "payable": false,
      "stateMutability": "nonpayable",
      "type": "function"
    },
    {
      "constant": false,
      "inputs": [
        {
          "name": "lotterDataAddr",
          "type": "address"
        }
      ],
      "name": "updateLotteryData",
      "outputs": [],
      "payable": false,
      "stateMutability": "nonpayable",
      "type": "function"
    },
    {
      "constant": false,
      "inputs": [
        {
          "name": "lotteryName",
          "type": "string"
        },
        {
          "name": "mode",
          "type": "uint256"
        }
      ],
      "name": "newLottery",
      "outputs": [
        {
          "name": "",
          "type": "uint256"
        }
      ],
      "payable": false,
      "stateMutability": "nonpayable",
      "type": "function"
    },
    {
      "constant": false,
      "inputs": [
        {
          "name": "lotteryID",
          "type": "uint256"
        },
        {
          "name": "startTime",
          "type": "uint256"
        },
        {
          "name": "endTime",
          "type": "uint256"
        },
        {
          "name": "dayLimit",
          "type": "bool"
        },
        {
          "name": "dayStartTime",
          "type": "uint256"
        },
        {
          "name": "dayEndTime",
          "type": "uint256"
        },
        {
          "name": "timesPerItem",
          "type": "int256"
        },
        {
          "name": "amountPerAction",
          "type": "uint256"
        },
        {
          "name": "openCondition",
          "type": "uint256"
        },
        {
          "name": "copies",
          "type": "uint256"
        }
      ],
      "name": "setLotteryConfig",
      "outputs": [],
      "payable": false,
      "stateMutability": "nonpayable",
      "type": "function"
    },
    {
      "constant": true,
      "inputs": [
        {
          "name": "lotteryID",
          "type": "uint256"
        }
      ],
      "name": "queryLotteryConfig",
      "outputs": [
        {
          "name": "",
          "type": "uint256"
        },
        {
          "name": "",
          "type": "uint256"
        },
        {
          "name": "",
          "type": "uint256"
        },
        {
          "name": "",
          "type": "bool"
        },
        {
          "name": "",
          "type": "uint256"
        },
        {
          "name": "",
          "type": "uint256"
        },
        {
          "name": "",
          "type": "int256"
        },
        {
          "name": "",
          "type": "uint256"
        },
        {
          "name": "",
          "type": "uint256"
        },
        {
          "name": "",
          "type": "uint256"
        }
      ],
      "payable": false,
      "stateMutability": "view",
      "type": "function"
    },
    {
      "constant": false,
      "inputs": [
        {
          "name": "lotteryID",
          "type": "uint256"
        }
      ],
      "name": "joinLottery",
      "outputs": [],
      "payable": true,
      "stateMutability": "payable",
      "type": "function"
    },
    {
      "constant": false,
      "inputs": [
        {
          "name": "lotteryID",
          "type": "uint256"
        }
      ],
      "name": "openLottery",
      "outputs": [],
      "payable": false,
      "stateMutability": "nonpayable",
      "type": "function"
    },
    {
      "constant": false,
      "inputs": [
        {
          "name": "lotteryID",
          "type": "uint256"
        }
      ],
      "name": "checkOpenLottery",
      "outputs": [
        {
          "name": "",
          "type": "bool"
        }
      ],
      "payable": false,
      "stateMutability": "nonpayable",
      "type": "function"
    },
    {
      "constant": false,
      "inputs": [
        {
          "name": "lotteryID",
          "type": "uint256"
        }
      ],
      "name": "queryLottery",
      "outputs": [
        {
          "name": "",
          "type": "string"
        },
        {
          "name": "",
          "type": "uint256"
        },
        {
          "name": "",
          "type": "uint256"
        },
        {
          "name": "",
          "type": "uint256"
        },
        {
          "name": "",
          "type": "address[]"
        },
        {
          "name": "",
          "type": "uint256[]"
        },
        {
          "name": "",
          "type": "uint256"
        },
        {
          "name": "",
          "type": "uint256[]"
        }
      ],
      "payable": false,
      "stateMutability": "nonpayable",
      "type": "function"
    },
    {
      "constant": true,
      "inputs": [
        {
          "name": "lotteryID",
          "type": "uint256"
        }
      ],
      "name": "queryLotteryResult",
      "outputs": [
        {
          "name": "",
          "type": "uint256"
        },
        {
          "name": "",
          "type": "address[]"
        },
        {
          "name": "",
          "type": "uint256[]"
        },
        {
          "name": "",
          "type": "uint256"
        },
        {
          "name": "",
          "type": "uint256"
        },
        {
          "name": "",
          "type": "uint256"
        },
        {
          "name": "",
          "type": "address[]"
        },
        {
          "name": "",
          "type": "address[]"
        }
      ],
      "payable": false,
      "stateMutability": "view",
      "type": "function"
    },
    {
      "constant": false,
      "inputs": [
        {
          "name": "lotteryID",
          "type": "uint256"
        }
      ],
      "name": "withDraw",
      "outputs": [],
      "payable": false,
      "stateMutability": "nonpayable",
      "type": "function"
    }
  ],
  "bytecode": "0x608060405234801561001057600080fd5b50604051604080611894833981018060405281019080805190602001909291908051906020019092919050505081806000806101000a81548173ffffffffffffffffffffffffffffffffffffffff021916908373ffffffffffffffffffffffffffffffffffffffff16021790555050600073ffffffffffffffffffffffffffffffffffffffff168273ffffffffffffffffffffffffffffffffffffffff16141515156100bb57600080fd5b600073ffffffffffffffffffffffffffffffffffffffff168173ffffffffffffffffffffffffffffffffffffffff16141515156100f757600080fd5b80600160006101000a81548173ffffffffffffffffffffffffffffffffffffffff021916908373ffffffffffffffffffffffffffffffffffffffff160217905550505061174b806101496000396000f3006080604052600436106100d0576000357c0100000000000000000000000000000000000000000000000000000000900463ffffffff16806314174f33146100d55780631785f53c146101025780635c0bf93914610145578063704802751461017257806372772ae8146101b557806379998d1b1461023e5780637eee9fc1146102975780638cef7e20146102b75780638e8964fc146102fc578063b2bdfa7b14610472578063da03ae1d146104c9578063da6112ea14610663578063f16fa66a146106e7578063f2fde38b1461072a575b600080fd5b3480156100e157600080fd5b506101006004803603810190808035906020019092919050505061076d565b005b34801561010e57600080fd5b50610143600480360381019080803573ffffffffffffffffffffffffffffffffffffffff169060200190929190505050610819565b005b34801561015157600080fd5b5061017060048036038101908080359060200190929190505050610877565b005b34801561017e57600080fd5b506101b3600480360381019080803573ffffffffffffffffffffffffffffffffffffffff169060200190929190505050610a8d565b005b3480156101c157600080fd5b5061023c600480360381019080803590602001909291908035906020019092919080359060200190929190803515159060200190929190803590602001909291908035906020019092919080359060200190929190803590602001909291908035906020019092919080359060200190929190505050610aeb565b005b34801561024a57600080fd5b5061028160048036038101908080359060200190820180359060200191909192939192939080359060200190929190505050610bec565b6040518082815260200191505060405180910390f35b6102b560048036038101908080359060200190929190505050610cea565b005b3480156102c357600080fd5b506102e260048036038101908080359060200190929190505050610e57565b604051808215151515815260200191505060405180910390f35b34801561030857600080fd5b5061032760048036038101908080359060200190929190505050610f2c565b604051808981526020018060200180602001888152602001878152602001868152602001806020018060200185810385528c818151815260200191508051906020019060200280838360005b8381101561038e578082015181840152602081019050610373565b5050505090500185810384528b818151815260200191508051906020019060200280838360005b838110156103d05780820151818401526020810190506103b5565b50505050905001858103835287818151815260200191508051906020019060200280838360005b838110156104125780820151818401526020810190506103f7565b50505050905001858103825286818151815260200191508051906020019060200280838360005b83811015610454578082015181840152602081019050610439565b505050509050019c5050505050505050505050505060405180910390f35b34801561047e57600080fd5b5061048761118c565b604051808273ffffffffffffffffffffffffffffffffffffffff1673ffffffffffffffffffffffffffffffffffffffff16815260200191505060405180910390f35b3480156104d557600080fd5b506104f4600480360381019080803590602001909291905050506111b1565b604051808060200189815260200188815260200187815260200180602001806020018681526020018060200185810385528d818151815260200191508051906020019080838360005b8381101561055857808201518184015260208101905061053d565b50505050905090810190601f1680156105855780820380516001836020036101000a031916815260200191505b50858103845289818151815260200191508051906020019060200280838360005b838110156105c15780820151818401526020810190506105a6565b50505050905001858103835288818151815260200191508051906020019060200280838360005b838110156106035780820151818401526020810190506105e8565b50505050905001858103825286818151815260200191508051906020019060200280838360005b8381101561064557808201518184015260208101905061062a565b505050509050019c5050505050505050505050505060405180910390f35b34801561066f57600080fd5b5061068e60048036038101908080359060200190929190505050611412565b604051808b81526020018a8152602001898152602001881515151581526020018781526020018681526020018581526020018481526020018381526020018281526020019a505050505050505050505060405180910390f35b3480156106f357600080fd5b50610728600480360381019080803573ffffffffffffffffffffffffffffffffffffffff16906020019092919050505061156a565b005b34801561073657600080fd5b5061076b600480360381019080803573ffffffffffffffffffffffffffffffffffffffff169060200190929190505050611645565b005b600160009054906101000a900473ffffffffffffffffffffffffffffffffffffffff1673ffffffffffffffffffffffffffffffffffffffff166314174f33826040518263ffffffff167c010000000000000000000000000000000000000000000000000000000002815260040180828152602001915050600060405180830381600087803b1580156107fe57600080fd5b505af1158015610812573d6000803e3d6000fd5b5050505050565b6000809054906101000a900473ffffffffffffffffffffffffffffffffffffffff1673ffffffffffffffffffffffffffffffffffffffff163373ffffffffffffffffffffffffffffffffffffffff1614151561087457600080fd5b50565b6000600160009054906101000a900473ffffffffffffffffffffffffffffffffffffffff1673ffffffffffffffffffffffffffffffffffffffff16638cef7e20836040518263ffffffff167c010000000000000000000000000000000000000000000000000000000002815260040180828152602001915050602060405180830381600087803b15801561090a57600080fd5b505af115801561091e573d6000803e3d6000fd5b505050506040513d602081101561093457600080fd5b810190808051906020019092919050505090508015156109bc576040517f08c379a00000000000000000000000000000000000000000000000000000000081526004018080602001828103825260208152602001807f6f70656e206c6f747465727920726571756972656d656e74206e6f74206d657481525060200191505060405180910390fd5b600160009054906101000a900473ffffffffffffffffffffffffffffffffffffffff1673ffffffffffffffffffffffffffffffffffffffff16635c0bf939836040518263ffffffff167c010000000000000000000000000000000000000000000000000000000002815260040180828152602001915050602060405180830381600087803b158015610a4d57600080fd5b505af1158015610a61573d6000803e3d6000fd5b505050506040513d6020811015610a7757600080fd5b8101908080519060200190929190505050505050565b6000809054906101000a900473ffffffffffffffffffffffffffffffffffffffff1673ffffffffffffffffffffffffffffffffffffffff163373ffffffffffffffffffffffffffffffffffffffff16141515610ae857600080fd5b50565b600160009054906101000a900473ffffffffffffffffffffffffffffffffffffffff1673ffffffffffffffffffffffffffffffffffffffff166372772ae88b8b8b8b8b8b8b8b8b8b6040518b63ffffffff167c0100000000000000000000000000000000000000000000000000000000028152600401808b81526020018a8152602001898152602001881515151581526020018781526020018681526020018581526020018481526020018381526020018281526020019a5050505050505050505050600060405180830381600087803b158015610bc857600080fd5b505af1158015610bdc573d6000803e3d6000fd5b5050505050505050505050505050565b600080600160009054906101000a900473ffffffffffffffffffffffffffffffffffffffff1673ffffffffffffffffffffffffffffffffffffffff166379998d1b8686866040518463ffffffff167c0100000000000000000000000000000000000000000000000000000000028152600401808060200183815260200182810382528585828181526020019250808284378201915050945050505050602060405180830381600087803b158015610ca257600080fd5b505af1158015610cb6573d6000803e3d6000fd5b505050506040513d6020811015610ccc57600080fd5b81019080805190602001909291905050509050809150509392505050565b600080339150813b9050600081141515610d6c576040517f08c379a00000000000000000000000000000000000000000000000000000000081526004018080602001828103825260128152602001807f20736f7272792068756d616e73206f6e6c79000000000000000000000000000081525060200191505060405180910390fd5b600160009054906101000a900473ffffffffffffffffffffffffffffffffffffffff1673ffffffffffffffffffffffffffffffffffffffff1663541d324e348533346040518563ffffffff167c0100000000000000000000000000000000000000000000000000000000028152600401808481526020018373ffffffffffffffffffffffffffffffffffffffff1673ffffffffffffffffffffffffffffffffffffffff16815260200182815260200193505050506000604051808303818588803b158015610e3957600080fd5b505af1158015610e4d573d6000803e3d6000fd5b5050505050505050565b6000600160009054906101000a900473ffffffffffffffffffffffffffffffffffffffff1673ffffffffffffffffffffffffffffffffffffffff16638cef7e20836040518263ffffffff167c010000000000000000000000000000000000000000000000000000000002815260040180828152602001915050602060405180830381600087803b158015610eea57600080fd5b505af1158015610efe573d6000803e3d6000fd5b505050506040513d6020811015610f1457600080fd5b81019080805190602001909291905050509050919050565b60006060806000806000606080600160009054906101000a900473ffffffffffffffffffffffffffffffffffffffff1673ffffffffffffffffffffffffffffffffffffffff16638e8964fc8a6040518263ffffffff167c010000000000000000000000000000000000000000000000000000000002815260040180828152602001915050600060405180830381600087803b158015610fca57600080fd5b505af1158015610fde573d6000803e3d6000fd5b505050506040513d6000823e3d601f19601f8201168201806040525061010081101561100957600080fd5b8101908080519060200190929190805164010000000081111561102b57600080fd5b8281019050602081018481111561104157600080fd5b815185602082028301116401000000008211171561105e57600080fd5b5050929190602001805164010000000081111561107a57600080fd5b8281019050602081018481111561109057600080fd5b81518560208202830111640100000000821117156110ad57600080fd5b505092919060200180519060200190929190805190602001909291908051906020019092919080516401000000008111156110e757600080fd5b828101905060208101848111156110fd57600080fd5b815185602082028301116401000000008211171561111a57600080fd5b5050929190602001805164010000000081111561113657600080fd5b8281019050602081018481111561114c57600080fd5b815185602082028301116401000000008211171561116957600080fd5b505092919050505097509750975097509750975097509750919395975091939597565b6000809054906101000a900473ffffffffffffffffffffffffffffffffffffffff1681565b6060600080600060608060006060600160009054906101000a900473ffffffffffffffffffffffffffffffffffffffff1673ffffffffffffffffffffffffffffffffffffffff1663da03ae1d8a6040518263ffffffff167c010000000000000000000000000000000000000000000000000000000002815260040180828152602001915050600060405180830381600087803b15801561125057600080fd5b505af1158015611264573d6000803e3d6000fd5b505050506040513d6000823e3d601f19601f8201168201806040525061010081101561128f57600080fd5b8101908080516401000000008111156112a757600080fd5b828101905060208101848111156112bd57600080fd5b81518560018202830111640100000000821117156112da57600080fd5b5050929190602001805190602001909291908051906020019092919080519060200190929190805164010000000081111561131457600080fd5b8281019050602081018481111561132a57600080fd5b815185602082028301116401000000008211171561134757600080fd5b5050929190602001805164010000000081111561136357600080fd5b8281019050602081018481111561137957600080fd5b815185602082028301116401000000008211171561139657600080fd5b50509291906020018051906020019092919080516401000000008111156113bc57600080fd5b828101905060208101848111156113d257600080fd5b81518560208202830111640100000000821117156113ef57600080fd5b505092919050505097509750975097509750975097509750919395975091939597565b600080600080600080600080600080600160009054906101000a900473ffffffffffffffffffffffffffffffffffffffff1673ffffffffffffffffffffffffffffffffffffffff1663da6112ea8c6040518263ffffffff167c01000000000000000000000000000000000000000000000000000000000281526004018082815260200191505061014060405180830381600087803b1580156114b357600080fd5b505af11580156114c7573d6000803e3d6000fd5b505050506040513d6101408110156114de57600080fd5b810190808051906020019092919080519060200190929190805190602001909291908051906020019092919080519060200190929190805190602001909291908051906020019092919080519060200190929190805190602001909291908051906020019092919050505099509950995099509950995099509950995099509193959799509193959799565b6000809054906101000a900473ffffffffffffffffffffffffffffffffffffffff1673ffffffffffffffffffffffffffffffffffffffff163373ffffffffffffffffffffffffffffffffffffffff161415156115c557600080fd5b600073ffffffffffffffffffffffffffffffffffffffff168173ffffffffffffffffffffffffffffffffffffffff161415151561160157600080fd5b80600160006101000a81548173ffffffffffffffffffffffffffffffffffffffff021916908373ffffffffffffffffffffffffffffffffffffffff16021790555050565b6000809054906101000a900473ffffffffffffffffffffffffffffffffffffffff1673ffffffffffffffffffffffffffffffffffffffff163373ffffffffffffffffffffffffffffffffffffffff161415156116a057600080fd5b600073ffffffffffffffffffffffffffffffffffffffff168173ffffffffffffffffffffffffffffffffffffffff16141515156116dc57600080fd5b806000806101000a81548173ffffffffffffffffffffffffffffffffffffffff021916908373ffffffffffffffffffffffffffffffffffffffff160217905550505600a165627a7a7230582012dad972f86f94af483066e0bf870db3915cb321cac32b5ef28bb8ac59b0b95d0029",
  "source": "pragma solidity ^0.4.24;\n\n// import \"openzeppelin-solidity/contracts/access/rbac/RBAC.sol\";\n\nimport \"./LotteryData.sol\";\nimport \"./Ownable.sol\";\n\n\ncontract LotteryControl is Ownable {\n\n  string constant admin_ = \"admin\";\n\n  LotteryData private lotteryData_;\n\n\n  /*\n    接口名称：合约构造函数\n    参数说明：owner：抽奖活动管理者账户地址，lotteryDataAddr：数据合约地址\n  */\n  constructor(address owner, address lotterDataAddr) Ownable(owner) public {\n    require(owner != address(0));\n    require(lotterDataAddr != address(0));\n    lotteryData_ = LotteryData(lotterDataAddr);\n\n    // addRole(owner, admin_);\n  }\n\n  //判断是否普通账户地址\n  modifier isHuman() {\n    address addr = msg.sender;\n    uint codeLength;\n    assembly {codeLength := extcodesize(addr)}\n    require(codeLength == 0, \" sorry humans only\");\n    _;\n  }\n\n  // 添加管理员\n  function addAdmin(address admin)\n    onlyOwner external\n  {\n    // addRole(admin, admin_);\n  }\n\n  // 移除管理员\n  function removeAdmin(address admin)\n    onlyOwner external\n  {\n    // removeRole(admin, admin_);\n  }\n\n  // 更新数据合约地址\n  function updateLotteryData(address lotterDataAddr)\n    onlyOwner external\n  {\n    require(lotterDataAddr != address(0));\n    lotteryData_ = LotteryData(lotterDataAddr);\n  }\n\n  /*\n    接口名称：新建抽奖\n    参数说明：lotteryName: 抽奖活动名称， mode：抽奖模式(0: 奖池金额固定模式， 1: 开奖时间固定模式  2：抽奖用户地址数量固定模式)\n  */\n  function newLottery(string lotteryName, uint mode) external \n  returns (uint)\n  {\n    uint lotteryID = lotteryData_.newLottery(lotteryName, mode);\n\n\n    /*\n\n    //设置抽奖参数配置， 开发者可根据需求自行配置\n    this.setLotteryConfig(\n      lotteryID,\n      1534144871,   // 活动开始时间  2018/8/13 15:21:11\n      1535144871,   // 活动结束时间 2018/8/25 5:7:51\n      true,         // 是否限制每天抽奖时间\n      8,            // 每天抽奖开始时间  8点\n      22,           // 每天抽奖结束时间  22点\n      10,           // 参与者抽奖次数限制\n      2,            // 每次抽奖的金额 单位：链克\n      8,            // 开奖条件    \n      1             // 奖品平分成几份发放\n    );\n\n   */\n    \n    return lotteryID;\n  }\n\n\n  // 设置抽奖配置\n  function setLotteryConfig (\n    uint lotteryID,            //抽奖活动ID\n    uint startTime,            //活动开始时间, Unix时间戳\n    uint endTime,              //活动结束时间, Unix时间戳\n    bool dayLimit,             //是否限制每天抽奖时间\n    uint dayStartTime,         //每天抽奖开始时间 \n    uint dayEndTime,           //每天抽奖结束时间 \n    int timesPerItem,          //参与者抽奖次数限制 \n    uint amountPerAction,      //每次抽奖的金额 单位：链克，  限制：单次抽奖金额设置最大10链克\n    uint openCondition,        //开奖条件，  抽奖模式为 0:奖池模式，奖池金额达到指定数量开奖(单位：链克)  1:开奖时间模式，达到指定时间开奖(Unix时间戳)  2:地址模式，参与用户账户地址达到指定数量开奖\n    uint copies                //奖品平分成几份发放，  限制：份数最大为100份\n    )\n    external \n  {\n    lotteryData_.setLotteryConfig(lotteryID, startTime, endTime,\n                                 dayLimit, dayStartTime, dayEndTime,\n                                 timesPerItem, amountPerAction,\n                                 openCondition, copies);\n  }\n\n  // 查看抽奖配置\n  function queryLotteryConfig(uint lotteryID)\n   view external \n    returns (\n      uint,      //抽奖模式\n      uint,      //活动开始时间\n      uint,      //活动结束时间\n      bool,      //是否限制每天抽奖时间\n      uint,      //每天抽奖开始时间\n      uint,      //每天抽奖结束时间\n      int,       //参与者抽奖次数限制\n      uint,      //每次抽奖需要的金额 单位：链克\n      uint,      //开奖条件  抽奖模式 0:奖池模式，奖池金额达到指定数量(单位：链克)  1:开奖时间模式，指定时刻开奖(单位：秒)  2:地址模式，参与者账户地址达到指定数量\n      uint       //奖品平分成几份发放\n    )\n  {\n    return lotteryData_.queryLotteryConfig(lotteryID);\n  }\n\n  // 参与抽奖\n  function joinLottery(uint lotteryID)\n    isHuman payable external\n  {\n    lotteryData_.joinLottery.value(msg.value)(lotteryID, msg.sender, msg.value);\n  }\n\n  // 开奖(1. 不满足开奖条件则退款; 2. 满足条件则开奖、发奖)\n  function openLottery(uint lotteryID)\n     external\n  {\n    bool toOpen = lotteryData_.checkOpenLottery(lotteryID);\n    require(toOpen, \"open lottery requirement not met\");\n    lotteryData_.openLottery(lotteryID);\n  }\n\n\n  // 查询是否可以开奖   \n  //retruns  true:可以开奖  false:不可开奖\n  function checkOpenLottery(uint lotteryID)\n    external \n    returns(bool)\n  {\n    return lotteryData_.checkOpenLottery(lotteryID);\n  }\n\n\n  // 查询抽奖信息\n  function queryLottery(uint lotteryID) external \n    returns(\n      string,      //抽奖活动名称\n      uint,        //抽奖模式\n      uint,        //抽奖活动状态  \n      uint,        //目前奖池累积金额，单位：链克\n      address[],   //抽奖用户账户地址\n      uint[],      //抽奖用户抽奖次数    \n      uint,        //抽奖人次数\n      uint[]       //管理员提现记录  单位：wei    1 链克 = 1e18 wei\n    )\n  {\n    return lotteryData_.queryLottery(lotteryID);\n  } \n \n  // 查看抽奖结果\n  function queryLotteryResult(uint lotteryID) view external \n    returns(\n      uint,       //活动状态   3：已开奖  4：已退款\n      address[],  //中奖用户地址\n      uint[],     //中奖用户中奖金额，单位：wei   1 链克 = 1e18 wei   \n      uint,       //已发奖人次数\n      uint,       //已发奖金额计数，单位：wei     1 链克 = 1e18 wei\n      uint,       //已退款金额计数, 单位：wei     1 链克 = 1e18 wei\n      address[],  //已发奖用户地址\n      address[]  //已退款用户地址   \n    )\n  {\n    return lotteryData_.queryLotteryResult(lotteryID);\n  }\n\n  // 管理员提现(已开放或已退款状态才能提现成功)\n  function withDraw(uint lotteryID)  external {\n    return lotteryData_.withDraw(lotteryID);\n  }\n}\n\n",
  "sourcePath": "/Users/luz/code/solidity/daopark-std/contracts/LotteryControl.sol",
  "compiler": {
    "name": "solc",
    "version": "0.4.24+commit.e67f0147.Emscripten.clang"
  },
  "schemaVersion": "2.0.1",
  "updatedAt": "2018-11-26T08:54:34.424Z"
}