{
    "contractName": "StarNotary",
    "abi": [
        {
            "constant": true,
            "inputs": [
                {
                    "name": "interfaceId",
                    "type": "bytes4"
                }
            ],
            "name": "supportsInterface",
            "outputs": [
                {
                    "name": "",
                    "type": "bool"
                }
            ],
            "payable": false,
            "stateMutability": "view",
            "type": "function"
        },
        {
            "constant": true,
            "inputs": [
                {
                    "name": "tokenId",
                    "type": "uint256"
                }
            ],
            "name": "getApproved",
            "outputs": [
                {
                    "name": "",
                    "type": "address"
                }
            ],
            "payable": false,
            "stateMutability": "view",
            "type": "function"
        },
        {
            "constant": false,
            "inputs": [
                {
                    "name": "to",
                    "type": "address"
                },
                {
                    "name": "tokenId",
                    "type": "uint256"
                }
            ],
            "name": "approve",
            "outputs": [],
            "payable": false,
            "stateMutability": "nonpayable",
            "type": "function"
        },
        {
            "constant": true,
            "inputs": [
                {
                    "name": "",
                    "type": "uint256"
                }
            ],
            "name": "tokenIdToStarInfo",
            "outputs": [
                {
                    "name": "name",
                    "type": "string"
                },
                {
                    "name": "ra",
                    "type": "string"
                },
                {
                    "name": "dec",
                    "type": "string"
                },
                {
                    "name": "mag",
                    "type": "string"
                },
                {
                    "name": "starStory",
                    "type": "string"
                }
            ],
            "payable": false,
            "stateMutability": "view",
            "type": "function"
        },
        {
            "constant": false,
            "inputs": [
                {
                    "name": "from",
                    "type": "address"
                },
                {
                    "name": "to",
                    "type": "address"
                },
                {
                    "name": "tokenId",
                    "type": "uint256"
                }
            ],
            "name": "transferFrom",
            "outputs": [],
            "payable": false,
            "stateMutability": "nonpayable",
            "type": "function"
        },
        {
            "constant": false,
            "inputs": [
                {
                    "name": "from",
                    "type": "address"
                },
                {
                    "name": "to",
                    "type": "address"
                },
                {
                    "name": "tokenId",
                    "type": "uint256"
                }
            ],
            "name": "safeTransferFrom",
            "outputs": [],
            "payable": false,
            "stateMutability": "nonpayable",
            "type": "function"
        },
        {
            "constant": true,
            "inputs": [
                {
                    "name": "tokenId",
                    "type": "uint256"
                }
            ],
            "name": "ownerOf",
            "outputs": [
                {
                    "name": "",
                    "type": "address"
                }
            ],
            "payable": false,
            "stateMutability": "view",
            "type": "function"
        },
        {
            "constant": true,
            "inputs": [
                {
                    "name": "owner",
                    "type": "address"
                }
            ],
            "name": "balanceOf",
            "outputs": [
                {
                    "name": "",
                    "type": "uint256"
                }
            ],
            "payable": false,
            "stateMutability": "view",
            "type": "function"
        },
        {
            "constant": true,
            "inputs": [
                {
                    "name": "",
                    "type": "address"
                }
            ],
            "name": "addressToCodBytes32",
            "outputs": [
                {
                    "name": "",
                    "type": "bytes32"
                }
            ],
            "payable": false,
            "stateMutability": "view",
            "type": "function"
        },
        {
            "constant": true,
            "inputs": [
                {
                    "name": "",
                    "type": "address"
                }
            ],
            "name": "nonces",
            "outputs": [
                {
                    "name": "",
                    "type": "uint256"
                }
            ],
            "payable": false,
            "stateMutability": "view",
            "type": "function"
        },
        {
            "constant": false,
            "inputs": [
                {
                    "name": "to",
                    "type": "address"
                },
                {
                    "name": "approved",
                    "type": "bool"
                }
            ],
            "name": "setApprovalForAll",
            "outputs": [],
            "payable": false,
            "stateMutability": "nonpayable",
            "type": "function"
        },
        {
            "constant": false,
            "inputs": [
                {
                    "name": "from",
                    "type": "address"
                },
                {
                    "name": "to",
                    "type": "address"
                },
                {
                    "name": "tokenId",
                    "type": "uint256"
                },
                {
                    "name": "_data",
                    "type": "bytes"
                }
            ],
            "name": "safeTransferFrom",
            "outputs": [],
            "payable": false,
            "stateMutability": "nonpayable",
            "type": "function"
        },
        {
            "constant": true,
            "inputs": [
                {
                    "name": "",
                    "type": "bytes32"
                }
            ],
            "name": "coordinatorToTokenId",
            "outputs": [
                {
                    "name": "",
                    "type": "uint256"
                }
            ],
            "payable": false,
            "stateMutability": "view",
            "type": "function"
        },
        {
            "constant": true,
            "inputs": [
                {
                    "name": "owner",
                    "type": "address"
                },
                {
                    "name": "operator",
                    "type": "address"
                }
            ],
            "name": "isApprovedForAll",
            "outputs": [
                {
                    "name": "",
                    "type": "bool"
                }
            ],
            "payable": false,
            "stateMutability": "view",
            "type": "function"
        },
        {
            "anonymous": false,
            "inputs": [
                {
                    "indexed": false,
                    "name": "s",
                    "type": "string"
                },
                {
                    "indexed": false,
                    "name": "x",
                    "type": "uint256"
                }
            ],
            "name": "LogUint",
            "type": "event"
        },
        {
            "anonymous": false,
            "inputs": [
                {
                    "indexed": false,
                    "name": "s",
                    "type": "string"
                },
                {
                    "indexed": false,
                    "name": "x",
                    "type": "int256"
                }
            ],
            "name": "LogInt",
            "type": "event"
        },
        {
            "anonymous": false,
            "inputs": [
                {
                    "indexed": false,
                    "name": "s",
                    "type": "string"
                },
                {
                    "indexed": false,
                    "name": "x",
                    "type": "bytes"
                }
            ],
            "name": "LogBytes",
            "type": "event"
        },
        {
            "anonymous": false,
            "inputs": [
                {
                    "indexed": false,
                    "name": "s",
                    "type": "string"
                },
                {
                    "indexed": false,
                    "name": "x",
                    "type": "bytes32"
                }
            ],
            "name": "LogBytes32",
            "type": "event"
        },
        {
            "anonymous": false,
            "inputs": [
                {
                    "indexed": false,
                    "name": "s",
                    "type": "string"
                },
                {
                    "indexed": false,
                    "name": "x",
                    "type": "address"
                }
            ],
            "name": "LogAddress",
            "type": "event"
        },
        {
            "anonymous": false,
            "inputs": [
                {
                    "indexed": false,
                    "name": "s",
                    "type": "string"
                },
                {
                    "indexed": false,
                    "name": "x",
                    "type": "bool"
                }
            ],
            "name": "LogBool",
            "type": "event"
        },
        {
            "anonymous": false,
            "inputs": [
                {
                    "indexed": true,
                    "name": "from",
                    "type": "address"
                },
                {
                    "indexed": true,
                    "name": "to",
                    "type": "address"
                },
                {
                    "indexed": true,
                    "name": "tokenId",
                    "type": "uint256"
                }
            ],
            "name": "Transfer",
            "type": "event"
        },
        {
            "anonymous": false,
            "inputs": [
                {
                    "indexed": true,
                    "name": "owner",
                    "type": "address"
                },
                {
                    "indexed": true,
                    "name": "approved",
                    "type": "address"
                },
                {
                    "indexed": true,
                    "name": "tokenId",
                    "type": "uint256"
                }
            ],
            "name": "Approval",
            "type": "event"
        },
        {
            "anonymous": false,
            "inputs": [
                {
                    "indexed": true,
                    "name": "owner",
                    "type": "address"
                },
                {
                    "indexed": true,
                    "name": "operator",
                    "type": "address"
                },
                {
                    "indexed": false,
                    "name": "approved",
                    "type": "bool"
                }
            ],
            "name": "ApprovalForAll",
            "type": "event"
        },
        {
            "constant": false,
            "inputs": [
                {
                    "name": "_key",
                    "type": "uint256"
                },
                {
                    "name": "_value",
                    "type": "uint256"
                }
            ],
            "name": "addStarForSale",
            "outputs": [],
            "payable": false,
            "stateMutability": "nonpayable",
            "type": "function"
        },
        {
            "constant": false,
            "inputs": [
                {
                    "name": "_tokenId",
                    "type": "uint256"
                }
            ],
            "name": "getPriceByStarTokenID",
            "outputs": [
                {
                    "name": "",
                    "type": "uint256"
                }
            ],
            "payable": false,
            "stateMutability": "nonpayable",
            "type": "function"
        },
        {
            "constant": false,
            "inputs": [
                {
                    "name": "_name",
                    "type": "string"
                },
                {
                    "name": "_ra",
                    "type": "string"
                },
                {
                    "name": "_dec",
                    "type": "string"
                },
                {
                    "name": "_mag",
                    "type": "string"
                },
                {
                    "name": "_starstory",
                    "type": "string"
                },
                {
                    "name": "_tokenId",
                    "type": "uint256"
                },
                {
                    "name": "_owner",
                    "type": "address"
                }
            ],
            "name": "createStarMeta",
            "outputs": [],
            "payable": false,
            "stateMutability": "nonpayable",
            "type": "function"
        },
        {
            "constant": false,
            "inputs": [
                {
                    "name": "_name",
                    "type": "string"
                },
                {
                    "name": "_ra",
                    "type": "string"
                },
                {
                    "name": "_dec",
                    "type": "string"
                },
                {
                    "name": "_mag",
                    "type": "string"
                },
                {
                    "name": "_starstory",
                    "type": "string"
                },
                {
                    "name": "_tokenId",
                    "type": "uint256"
                }
            ],
            "name": "createStar",
            "outputs": [],
            "payable": false,
            "stateMutability": "nonpayable",
            "type": "function"
        },
        {
            "constant": false,
            "inputs": [
                {
                    "name": "_v",
                    "type": "uint8"
                },
                {
                    "name": "_r",
                    "type": "bytes32"
                },
                {
                    "name": "_s",
                    "type": "bytes32"
                },
                {
                    "name": "_from",
                    "type": "address"
                },
                {
                    "name": "_to",
                    "type": "address"
                },
                {
                    "name": "_value",
                    "type": "uint256"
                },
                {
                    "name": "_data",
                    "type": "bytes"
                },
                {
                    "name": "_rewardType",
                    "type": "address"
                },
                {
                    "name": "_rewardAmount",
                    "type": "uint256"
                }
            ],
            "name": "execute",
            "outputs": [],
            "payable": false,
            "stateMutability": "nonpayable",
            "type": "function"
        },
        {
            "constant": true,
            "inputs": [
                {
                    "name": "_ra",
                    "type": "string"
                },
                {
                    "name": "_dec",
                    "type": "string"
                },
                {
                    "name": "_mag",
                    "type": "string"
                }
            ],
            "name": "checkIfStarExist",
            "outputs": [
                {
                    "name": "",
                    "type": "bool"
                }
            ],
            "payable": false,
            "stateMutability": "view",
            "type": "function"
        },
        {
            "constant": false,
            "inputs": [
                {
                    "name": "_tokenId",
                    "type": "uint256"
                },
                {
                    "name": "_price",
                    "type": "uint256"
                }
            ],
            "name": "putStarUpForSale",
            "outputs": [],
            "payable": false,
            "stateMutability": "nonpayable",
            "type": "function"
        },
        {
            "constant": false,
            "inputs": [
                {
                    "name": "_tokenId",
                    "type": "uint256"
                }
            ],
            "name": "buyStar",
            "outputs": [],
            "payable": true,
            "stateMutability": "payable",
            "type": "function"
        },
        {
            "constant": false,
            "inputs": [
                {
                    "name": "to",
                    "type": "address"
                },
                {
                    "name": "tokenId",
                    "type": "uint256"
                }
            ],
            "name": "_approve",
            "outputs": [],
            "payable": false,
            "stateMutability": "nonpayable",
            "type": "function"
        },
        {
            "constant": false,
            "inputs": [
                {
                    "name": "from",
                    "type": "address"
                },
                {
                    "name": "to",
                    "type": "address"
                },
                {
                    "name": "tokenId",
                    "type": "uint256"
                }
            ],
            "name": "_safeTransferFrom",
            "outputs": [],
            "payable": false,
            "stateMutability": "nonpayable",
            "type": "function"
        },
        {
            "constant": false,
            "inputs": [
                {
                    "name": "to",
                    "type": "address"
                },
                {
                    "name": "approved",
                    "type": "bool"
                }
            ],
            "name": "_setApprovalForAll",
            "outputs": [],
            "payable": false,
            "stateMutability": "nonpayable",
            "type": "function"
        },
        {
            "constant": true,
            "inputs": [
                {
                    "name": "tokenId",
                    "type": "uint256"
                }
            ],
            "name": "_getApproved",
            "outputs": [
                {
                    "name": "",
                    "type": "address"
                }
            ],
            "payable": false,
            "stateMutability": "view",
            "type": "function"
        },
        {
            "constant": true,
            "inputs": [
                {
                    "name": "owner",
                    "type": "address"
                },
                {
                    "name": "operator",
                    "type": "address"
                }
            ],
            "name": "_isApprovedForAll",
            "outputs": [
                {
                    "name": "",
                    "type": "bool"
                }
            ],
            "payable": false,
            "stateMutability": "view",
            "type": "function"
        },
        {
            "constant": true,
            "inputs": [
                {
                    "name": "tokenId",
                    "type": "uint256"
                }
            ],
            "name": "_ownerOf",
            "outputs": [
                {
                    "name": "",
                    "type": "address"
                }
            ],
            "payable": false,
            "stateMutability": "view",
            "type": "function"
        },
        {
            "constant": false,
            "inputs": [],
            "name": "starsForSale",
            "outputs": [
                {
                    "name": "",
                    "type": "string"
                }
            ],
            "payable": false,
            "stateMutability": "nonpayable",
            "type": "function"
        },
        {
            "constant": true,
            "inputs": [
                {
                    "name": "_tokenId",
                    "type": "uint256"
                }
            ],
            "name": "_starsForSale",
            "outputs": [
                {
                    "name": "",
                    "type": "uint256"
                }
            ],
            "payable": false,
            "stateMutability": "view",
            "type": "function"
        },
        {
            "constant": true,
            "inputs": [
                {
                    "name": "_tokenId",
                    "type": "uint256"
                }
            ],
            "name": "_tokenIdToStarInfo",
            "outputs": [
                {
                    "name": "",
                    "type": "string"
                },
                {
                    "name": "",
                    "type": "string"
                },
                {
                    "name": "",
                    "type": "string"
                },
                {
                    "name": "",
                    "type": "string"
                },
                {
                    "name": "",
                    "type": "string"
                }
            ],
            "payable": false,
            "stateMutability": "view",
            "type": "function"
        }
    ],
    "bytecode": "0x6080604052620000416301ffc9a77c01000000000000000000000000000000000000000000000000000000000262000084640100000000026401000000009004565b6200007e6380ac58cd7c01000000000000000000000000000000000000000000000000000000000262000084640100000000026401000000009004565b62000142565b63ffffffff7c010000000000000000000000000000000000000000000000000000000002817bffffffffffffffffffffffffffffffffffffffffffffffffffffffff191614151515620000d657600080fd5b6001600080837bffffffffffffffffffffffffffffffffffffffffffffffffffffffff19167bffffffffffffffffffffffffffffffffffffffffffffffffffffffff1916815260200190815260200160002060006101000a81548160ff02191690831515021790555050565b6137f280620001526000396000f30060806040526004361061018b576000357c0100000000000000000000000000000000000000000000000000000000900463ffffffff16806301ffc9a7146101905780630384153d146101f4578063081812fc14610301578063095ea7b31461036e5780631967fd98146103bb5780631f29dac71461061157806323b872dd146106525780632d95fdb5146106bf5780632f1c34ef1461073a578063316a43611461075a57806338350541146107915780633c05187b146107fe57806342842e0e146109045780634cd2438914610971578063613883e314610bc75780636352211e14610c5757806363b6612b14610cc45780636d5e136d14610cfb57806370a0823114610d6857806373d14e6314610dbf5780637b7d722514610e1e5780637ecebe0014610e6b57806397e2782c14610ec25780639eebeb7114610f03578063a22cb46514610f70578063b250ced014610fbf578063b88d4fde1461114a578063b93a50b0146111fd578063e755b7231461124c578063e985e9c514611291578063f7611a9b1461130c575b600080fd5b34801561019c57600080fd5b506101da60048036038101908080357bffffffffffffffffffffffffffffffffffffffffffffffffffffffff191690602001909291905050506114b7565b604051808215151515815260200191505060405180910390f35b34801561020057600080fd5b506102e7600480360381019080803590602001908201803590602001908080601f0160208091040260200160405190810160405280939291908181526020018383808284378201915050505050509192919290803590602001908201803590602001908080601f0160208091040260200160405190810160405280939291908181526020018383808284378201915050505050509192919290803590602001908201803590602001908080601f016020809104026020016040519081016040528093929190818152602001838380828437820191505050505050919291929050505061151e565b604051808215151515815260200191505060405180910390f35b34801561030d57600080fd5b5061032c600480360381019080803590602001909291905050506115b1565b604051808273ffffffffffffffffffffffffffffffffffffffff1673ffffffffffffffffffffffffffffffffffffffff16815260200191505060405180910390f35b34801561037a57600080fd5b506103b9600480360381019080803573ffffffffffffffffffffffffffffffffffffffff16906020019092919080359060200190929190505050611602565b005b3480156103c757600080fd5b506103e660048036038101908080359060200190929190505050611747565b60405180806020018060200180602001806020018060200186810386528b818151815260200191508051906020019080838360005b8381101561043657808201518184015260208101905061041b565b50505050905090810190601f1680156104635780820380516001836020036101000a031916815260200191505b5086810385528a818151815260200191508051906020019080838360005b8381101561049c578082015181840152602081019050610481565b50505050905090810190601f1680156104c95780820380516001836020036101000a031916815260200191505b50868103845289818151815260200191508051906020019080838360005b838110156105025780820151818401526020810190506104e7565b50505050905090810190601f16801561052f5780820380516001836020036101000a031916815260200191505b50868103835288818151815260200191508051906020019080838360005b8381101561056857808201518184015260208101905061054d565b50505050905090810190601f1680156105955780820380516001836020036101000a031916815260200191505b50868103825287818151815260200191508051906020019080838360005b838110156105ce5780820151818401526020810190506105b3565b50505050905090810190601f1680156105fb5780820380516001836020036101000a031916815260200191505b509a505050505050505050505060405180910390f35b34801561061d57600080fd5b5061063c60048036038101908080359060200190929190505050611a75565b6040518082815260200191505060405180910390f35b34801561065e57600080fd5b506106bd600480360381019080803573ffffffffffffffffffffffffffffffffffffffff169060200190929190803573ffffffffffffffffffffffffffffffffffffffff16906020019092919080359060200190929190505050611b2f565b005b3480156106cb57600080fd5b50610720600480360381019080803573ffffffffffffffffffffffffffffffffffffffff169060200190929190803573ffffffffffffffffffffffffffffffffffffffff169060200190929190505050611bfe565b604051808215151515815260200191505060405180910390f35b61075860048036038101908080359060200190929190505050611c11565b005b34801561076657600080fd5b5061078f6004803603810190808035906020019092919080359060200190929190505050611da3565b005b34801561079d57600080fd5b506107bc60048036038101908080359060200190929190505050611e94565b604051808273ffffffffffffffffffffffffffffffffffffffff1673ffffffffffffffffffffffffffffffffffffffff16815260200191505060405180910390f35b34801561080a57600080fd5b50610902600480360381019080803560ff16906020019092919080356000191690602001909291908035600019169060200190929190803573ffffffffffffffffffffffffffffffffffffffff169060200190929190803573ffffffffffffffffffffffffffffffffffffffff16906020019092919080359060200190929190803590602001908201803590602001908080601f0160208091040260200160405190810160405280939291908181526020018383808284378201915050505050509192919290803573ffffffffffffffffffffffffffffffffffffffff16906020019092919080359060200190929190505050611ea6565b005b34801561091057600080fd5b5061096f600480360381019080803573ffffffffffffffffffffffffffffffffffffffff169060200190929190803573ffffffffffffffffffffffffffffffffffffffff16906020019092919080359060200190929190505050612189565b005b34801561097d57600080fd5b5061099c600480360381019080803590602001909291905050506121aa565b60405180806020018060200180602001806020018060200186810386528b818151815260200191508051906020019080838360005b838110156109ec5780820151818401526020810190506109d1565b50505050905090810190601f168015610a195780820380516001836020036101000a031916815260200191505b5086810385528a818151815260200191508051906020019080838360005b83811015610a52578082015181840152602081019050610a37565b50505050905090810190601f168015610a7f5780820380516001836020036101000a031916815260200191505b50868103845289818151815260200191508051906020019080838360005b83811015610ab8578082015181840152602081019050610a9d565b50505050905090810190601f168015610ae55780820380516001836020036101000a031916815260200191505b50868103835288818151815260200191508051906020019080838360005b83811015610b1e578082015181840152602081019050610b03565b50505050905090810190601f168015610b4b5780820380516001836020036101000a031916815260200191505b50868103825287818151815260200191508051906020019080838360005b83811015610b84578082015181840152602081019050610b69565b50505050905090810190601f168015610bb15780820380516001836020036101000a031916815260200191505b509a505050505050505050505060405180910390f35b348015610bd357600080fd5b50610bdc612541565b6040518080602001828103825283818151815260200191508051906020019080838360005b83811015610c1c578082015181840152602081019050610c01565b50505050905090810190601f168015610c495780820380516001836020036101000a031916815260200191505b509250505060405180910390f35b348015610c6357600080fd5b50610c82600480360381019080803590602001909291905050506128c0565b604051808273ffffffffffffffffffffffffffffffffffffffff1673ffffffffffffffffffffffffffffffffffffffff16815260200191505060405180910390f35b348015610cd057600080fd5b50610cf9600480360381019080803590602001909291908035906020019092919050505061293e565b005b348015610d0757600080fd5b50610d26600480360381019080803590602001909291905050506129fc565b604051808273ffffffffffffffffffffffffffffffffffffffff1673ffffffffffffffffffffffffffffffffffffffff16815260200191505060405180910390f35b348015610d7457600080fd5b50610da9600480360381019080803573ffffffffffffffffffffffffffffffffffffffff169060200190929190505050612a0e565b6040518082815260200191505060405180910390f35b348015610dcb57600080fd5b50610e00600480360381019080803573ffffffffffffffffffffffffffffffffffffffff169060200190929190505050612a92565b60405180826000191660001916815260200191505060405180910390f35b348015610e2a57600080fd5b50610e69600480360381019080803573ffffffffffffffffffffffffffffffffffffffff16906020019092919080359060200190929190505050612aaa565b005b348015610e7757600080fd5b50610eac600480360381019080803573ffffffffffffffffffffffffffffffffffffffff169060200190929190505050612ab8565b6040518082815260200191505060405180910390f35b348015610ece57600080fd5b50610eed60048036038101908080359060200190929190505050612ad0565b6040518082815260200191505060405180910390f35b348015610f0f57600080fd5b50610f6e600480360381019080803573ffffffffffffffffffffffffffffffffffffffff169060200190929190803573ffffffffffffffffffffffffffffffffffffffff16906020019092919080359060200190929190505050612b8a565b005b348015610f7c57600080fd5b50610fbd600480360381019080803573ffffffffffffffffffffffffffffffffffffffff169060200190929190803515159060200190929190505050612b9a565b005b348015610fcb57600080fd5b50611148600480360381019080803590602001908201803590602001908080601f0160208091040260200160405190810160405280939291908181526020018383808284378201915050505050509192919290803590602001908201803590602001908080601f0160208091040260200160405190810160405280939291908181526020018383808284378201915050505050509192919290803590602001908201803590602001908080601f0160208091040260200160405190810160405280939291908181526020018383808284378201915050505050509192919290803590602001908201803590602001908080601f0160208091040260200160405190810160405280939291908181526020018383808284378201915050505050509192919290803590602001908201803590602001908080601f016020809104026020016040519081016040528093929190818152602001838380828437820191505050505050919291929080359060200190929190505050612cd6565b005b34801561115657600080fd5b506111fb600480360381019080803573ffffffffffffffffffffffffffffffffffffffff169060200190929190803573ffffffffffffffffffffffffffffffffffffffff16906020019092919080359060200190929190803590602001908201803590602001908080601f0160208091040260200160405190810160405280939291908181526020018383808284378201915050505050509192919290505050612ced565b005b34801561120957600080fd5b5061124a600480360381019080803573ffffffffffffffffffffffffffffffffffffffff169060200190929190803515159060200190929190505050612d15565b005b34801561125857600080fd5b5061127b6004803603810190808035600019169060200190929190505050612d23565b6040518082815260200191505060405180910390f35b34801561129d57600080fd5b506112f2600480360381019080803573ffffffffffffffffffffffffffffffffffffffff169060200190929190803573ffffffffffffffffffffffffffffffffffffffff169060200190929190505050612d3b565b604051808215151515815260200191505060405180910390f35b34801561131857600080fd5b506114b5600480360381019080803590602001908201803590602001908080601f0160208091040260200160405190810160405280939291908181526020018383808284378201915050505050509192919290803590602001908201803590602001908080601f0160208091040260200160405190810160405280939291908181526020018383808284378201915050505050509192919290803590602001908201803590602001908080601f0160208091040260200160405190810160405280939291908181526020018383808284378201915050505050509192919290803590602001908201803590602001908080601f0160208091040260200160405190810160405280939291908181526020018383808284378201915050505050509192919290803590602001908201803590602001908080601f016020809104026020016040519081016040528093929190818152602001838380828437820191505050505050919291929080359060200190929190803573ffffffffffffffffffffffffffffffffffffffff169060200190929190505050612dcf565b005b6000806000837bffffffffffffffffffffffffffffffffffffffffffffffffffffffff19167bffffffffffffffffffffffffffffffffffffffffffffffffffffffff1916815260200190815260200160002060009054906101000a900460ff169050919050565b60006060600061156961153085612e12565b61155b61155661153f89612e12565b6115488b612e12565b612e4090919063ffffffff16565b612e12565b612e4090919063ffffffff16565b915061157482612ec2565b905060006009600083600019166000191681526020019081526020016000205414156115a357600092506115a8565b600192505b50509392505050565b60006115bc82612ed0565b15156115c757600080fd5b6002600083815260200190815260200160002060009054906101000a900473ffffffffffffffffffffffffffffffffffffffff169050919050565b600061160d826128c0565b90508073ffffffffffffffffffffffffffffffffffffffff168373ffffffffffffffffffffffffffffffffffffffff161415151561164a57600080fd5b8073ffffffffffffffffffffffffffffffffffffffff163373ffffffffffffffffffffffffffffffffffffffff16148061168a57506116898133612d3b565b5b151561169557600080fd5b826002600084815260200190815260200160002060006101000a81548173ffffffffffffffffffffffffffffffffffffffff021916908373ffffffffffffffffffffffffffffffffffffffff160217905550818373ffffffffffffffffffffffffffffffffffffffff168273ffffffffffffffffffffffffffffffffffffffff167f8c5be1e5ebec7d5bd14f71427d1e84f3dd0314c0f7b2291e5b200ac8c7c3b92560405160405180910390a4505050565b6008602052806000526040600020600091509050806000018054600181600116156101000203166002900480601f0160208091040260200160405190810160405280929190818152602001828054600181600116156101000203166002900480156117f35780601f106117c8576101008083540402835291602001916117f3565b820191906000526020600020905b8154815290600101906020018083116117d657829003601f168201915b505050505090806001018054600181600116156101000203166002900480601f0160208091040260200160405190810160405280929190818152602001828054600181600116156101000203166002900480156118915780601f1061186657610100808354040283529160200191611891565b820191906000526020600020905b81548152906001019060200180831161187457829003601f168201915b505050505090806002018054600181600116156101000203166002900480601f01602080910402602001604051908101604052809291908181526020018280546001816001161561010002031660029004801561192f5780601f106119045761010080835404028352916020019161192f565b820191906000526020600020905b81548152906001019060200180831161191257829003601f168201915b505050505090806003018054600181600116156101000203166002900480601f0160208091040260200160405190810160405280929190818152602001828054600181600116156101000203166002900480156119cd5780601f106119a2576101008083540402835291602001916119cd565b820191906000526020600020905b8154815290600101906020018083116119b057829003601f168201915b505050505090806004018054600181600116156101000203166002900480601f016020809104026020016040519081016040528092919081815260200182805460018160011615610100020316600290048015611a6b5780601f10611a4057610100808354040283529160200191611a6b565b820191906000526020600020905b815481529060010190602001808311611a4e57829003601f168201915b5050505050905085565b6000600573__IterableMapping_______________________63f8ccc8b79091846040518363ffffffff167c0100000000000000000000000000000000000000000000000000000000028152600401808381526020018281526020019250505060206040518083038186803b158015611aed57600080fd5b505af4158015611b01573d6000803e3d6000fd5b505050506040513d6020811015611b1757600080fd5b81019080805190602001909291905050509050919050565b611b393382612f42565b1515611b4457600080fd5b600073ffffffffffffffffffffffffffffffffffffffff168273ffffffffffffffffffffffffffffffffffffffff1614151515611b8057600080fd5b611b8a8382612fd7565b611b9483826130da565b611b9e8282613209565b808273ffffffffffffffffffffffffffffffffffffffff168473ffffffffffffffffffffffffffffffffffffffff167fddf252ad1be2c89b69c2b068fc378daa952ba7f163c4a11628f55a4df523b3ef60405160405180910390a4505050565b6000611c0a8383612d3b565b5092915050565b6000806000611c1f84611a75565b111515611c2b57600080fd5b611c3483611a75565b91503073ffffffffffffffffffffffffffffffffffffffff16636352211e846040518263ffffffff167c010000000000000000000000000000000000000000000000000000000002815260040180828152602001915050602060405180830381600087803b158015611ca557600080fd5b505af1158015611cb9573d6000803e3d6000fd5b505050506040513d6020811015611ccf57600080fd5b81019080805190602001909291905050509050813410151515611cf157600080fd5b611cfb81846130da565b611d053384613209565b8073ffffffffffffffffffffffffffffffffffffffff166108fc839081150290604051600060405180830381858888f19350505050158015611d4b573d6000803e3d6000fd5b5081341115611d9e573373ffffffffffffffffffffffffffffffffffffffff166108fc8334039081150290604051600060405180830381858888f19350505050158015611d9c573d6000803e3d6000fd5b505b505050565b3373ffffffffffffffffffffffffffffffffffffffff163073ffffffffffffffffffffffffffffffffffffffff16636352211e846040518263ffffffff167c010000000000000000000000000000000000000000000000000000000002815260040180828152602001915050602060405180830381600087803b158015611e2957600080fd5b505af1158015611e3d573d6000803e3d6000fd5b505050506040513d6020811015611e5357600080fd5b810190808051906020019092919050505073ffffffffffffffffffffffffffffffffffffffff16141515611e8657600080fd5b611e90828261293e565b5050565b6000611e9f826128c0565b9050919050565b600030878787878787600b60008f73ffffffffffffffffffffffffffffffffffffffff1673ffffffffffffffffffffffffffffffffffffffff168152602001908152602001600020600081548092919060010191905055604051602001808973ffffffffffffffffffffffffffffffffffffffff1673ffffffffffffffffffffffffffffffffffffffff166c010000000000000000000000000281526014018873ffffffffffffffffffffffffffffffffffffffff1673ffffffffffffffffffffffffffffffffffffffff166c010000000000000000000000000281526014018773ffffffffffffffffffffffffffffffffffffffff1673ffffffffffffffffffffffffffffffffffffffff166c0100000000000000000000000002815260140186815260200185805190602001908083835b602083101515611ffe5780518252602082019150602081019050602083039250611fd9565b6001836020036101000a0380198251168184511680821785525050505050509050018473ffffffffffffffffffffffffffffffffffffffff1673ffffffffffffffffffffffffffffffffffffffff166c01000000000000000000000000028152601401838152602001828152602001985050505050505050506040516020818303038152906040526040518082805190602001908083835b6020831015156120bb5780518252602082019150602081019050602083039250612096565b6001836020036101000a038019825116818451168082178552505050505050905001915050604051809103902090508573ffffffffffffffffffffffffffffffffffffffff16858560405180828051906020019080838360005b83811015612130578082015181840152602081019050612115565b50505050905090810190601f16801561215d5780820380516001836020036101000a031916815260200191505b5091505060006040518083038185875af192505050151561217d57600080fd5b50505050505050505050565b6121a58383836020604051908101604052806000815250612ced565b505050565b60608060608060606121ba61377c565b6008600088815260200190815260200160002060a06040519081016040529081600082018054600181600116156101000203166002900480601f0160208091040260200160405190810160405280929190818152602001828054600181600116156101000203166002900480156122725780601f1061224757610100808354040283529160200191612272565b820191906000526020600020905b81548152906001019060200180831161225557829003601f168201915b50505050508152602001600182018054600181600116156101000203166002900480601f0160208091040260200160405190810160405280929190818152602001828054600181600116156101000203166002900480156123145780601f106122e957610100808354040283529160200191612314565b820191906000526020600020905b8154815290600101906020018083116122f757829003601f168201915b50505050508152602001600282018054600181600116156101000203166002900480601f0160208091040260200160405190810160405280929190818152602001828054600181600116156101000203166002900480156123b65780601f1061238b576101008083540402835291602001916123b6565b820191906000526020600020905b81548152906001019060200180831161239957829003601f168201915b50505050508152602001600382018054600181600116156101000203166002900480601f0160208091040260200160405190810160405280929190818152602001828054600181600116156101000203166002900480156124585780601f1061242d57610100808354040283529160200191612458565b820191906000526020600020905b81548152906001019060200180831161243b57829003601f168201915b50505050508152602001600482018054600181600116156101000203166002900480601f0160208091040260200160405190810160405280929190818152602001828054600181600116156101000203166002900480156124fa5780601f106124cf576101008083540402835291602001916124fa565b820191906000526020600020905b8154815290600101906020018083116124dd57829003601f168201915b505050505081525050905080600001518160800151826020015183604001518460600151849450839350829250819150809050955095509550955095505091939590929450565b606080600080600060606020604051908101604052806000815250945073__IterableMapping_______________________63a21ab71660056040518263ffffffff167c01000000000000000000000000000000000000000000000000000000000281526004018082815260200191505060206040518083038186803b1580156125ca57600080fd5b505af41580156125de573d6000803e3d6000fd5b505050506040513d60208110156125f457600080fd5b810190808051906020019092919050505093505b73__IterableMapping_______________________63c8fccc696005866040518363ffffffff167c0100000000000000000000000000000000000000000000000000000000028152600401808381526020018281526020019250505060206040518083038186803b15801561267c57600080fd5b505af4158015612690573d6000803e3d6000fd5b505050506040513d60208110156126a657600080fd5b8101908080519060200190929190505050156128b55773__IterableMapping_______________________6375a3e8e86005866040518363ffffffff167c01000000000000000000000000000000000000000000000000000000000281526004018083815260200182815260200192505050604080518083038186803b15801561272f57600080fd5b505af4158015612743573d6000803e3d6000fd5b505050506040513d604081101561275957600080fd5b8101908080519060200190929190805190602001909291905050509250925061278183613363565b90506127fd6127c46040805190810160405280600181526020017f5f00000000000000000000000000000000000000000000000000000000000000815250612e12565b6127ef6127ea6127d385612e12565b6127dc8a612e12565b612e4090919063ffffffff16565b612e12565b612e4090919063ffffffff16565b945073__IterableMapping_______________________6388d044376005866040518363ffffffff167c0100000000000000000000000000000000000000000000000000000000028152600401808381526020018281526020019250505060206040518083038186803b15801561287357600080fd5b505af4158015612887573d6000803e3d6000fd5b505050506040513d602081101561289d57600080fd5b81019080805190602001909291905050509350612608565b849550505050505090565b6000806001600084815260200190815260200160002060009054906101000a900473ffffffffffffffffffffffffffffffffffffffff169050600073ffffffffffffffffffffffffffffffffffffffff168173ffffffffffffffffffffffffffffffffffffffff161415151561293557600080fd5b80915050919050565b600573__IterableMapping_______________________637e523645909184846040518463ffffffff167c010000000000000000000000000000000000000000000000000000000002815260040180848152602001838152602001828152602001935050505060206040518083038186803b1580156129bc57600080fd5b505af41580156129d0573d6000803e3d6000fd5b505050506040513d60208110156129e657600080fd5b8101908080519060200190929190505050505050565b6000612a07826115b1565b9050919050565b60008073ffffffffffffffffffffffffffffffffffffffff168273ffffffffffffffffffffffffffffffffffffffff1614151515612a4b57600080fd5b600360008373ffffffffffffffffffffffffffffffffffffffff1673ffffffffffffffffffffffffffffffffffffffff168152602001908152602001600020549050919050565b600a6020528060005260406000206000915090505481565b612ab48282611602565b5050565b600b6020528060005260406000206000915090505481565b6000600573__IterableMapping_______________________63f8ccc8b79091846040518363ffffffff167c0100000000000000000000000000000000000000000000000000000000028152600401808381526020018281526020019250505060206040518083038186803b158015612b4857600080fd5b505af4158015612b5c573d6000803e3d6000fd5b505050506040513d6020811015612b7257600080fd5b81019080805190602001909291905050509050919050565b612b95838383612189565b505050565b3373ffffffffffffffffffffffffffffffffffffffff168273ffffffffffffffffffffffffffffffffffffffff1614151515612bd557600080fd5b80600460003373ffffffffffffffffffffffffffffffffffffffff1673ffffffffffffffffffffffffffffffffffffffff16815260200190815260200160002060008473ffffffffffffffffffffffffffffffffffffffff1673ffffffffffffffffffffffffffffffffffffffff16815260200190815260200160002060006101000a81548160ff0219169083151502179055508173ffffffffffffffffffffffffffffffffffffffff163373ffffffffffffffffffffffffffffffffffffffff167f17307eab39ab6107e8899845ad3d59bd9653f200f220920489ca2b5937696c3183604051808215151515815260200191505060405180910390a35050565b612ce586868686868633612dcf565b505050505050565b612cf8848484611b2f565b612d04848484846134ba565b1515612d0f57600080fd5b50505050565b612d1f8282612b9a565b5050565b60096020528060005260406000206000915090505481565b6000600460008473ffffffffffffffffffffffffffffffffffffffff1673ffffffffffffffffffffffffffffffffffffffff16815260200190815260200160002060008373ffffffffffffffffffffffffffffffffffffffff1673ffffffffffffffffffffffffffffffffffffffff16815260200190815260200160002060009054906101000a900460ff16905092915050565b3073ffffffffffffffffffffffffffffffffffffffff163373ffffffffffffffffffffffffffffffffffffffff16141515612e0957600080fd5b50505050505050565b612e1a6137ac565b600060208301905060408051908101604052808451815260200182815250915050919050565b606080600083600001518560000151016040519080825280601f01601f191660200182016040528015612e825781602001602082028038833980820191505090505b509150602082019050612e9e81866020015187600001516136dc565b612eb785600001518201856020015186600001516136dc565b819250505092915050565b600060208201519050919050565b6000806001600084815260200190815260200160002060009054906101000a900473ffffffffffffffffffffffffffffffffffffffff169050600073ffffffffffffffffffffffffffffffffffffffff168173ffffffffffffffffffffffffffffffffffffffff161415915050919050565b600080612f4e836128c0565b90508073ffffffffffffffffffffffffffffffffffffffff168473ffffffffffffffffffffffffffffffffffffffff161480612fbd57508373ffffffffffffffffffffffffffffffffffffffff16612fa5846115b1565b73ffffffffffffffffffffffffffffffffffffffff16145b80612fce5750612fcd8185612d3b565b5b91505092915050565b8173ffffffffffffffffffffffffffffffffffffffff16612ff7826128c0565b73ffffffffffffffffffffffffffffffffffffffff1614151561301957600080fd5b600073ffffffffffffffffffffffffffffffffffffffff166002600083815260200190815260200160002060009054906101000a900473ffffffffffffffffffffffffffffffffffffffff1673ffffffffffffffffffffffffffffffffffffffff161415156130d65760006002600083815260200190815260200160002060006101000a81548173ffffffffffffffffffffffffffffffffffffffff021916908373ffffffffffffffffffffffffffffffffffffffff1602179055505b5050565b8173ffffffffffffffffffffffffffffffffffffffff166130fa826128c0565b73ffffffffffffffffffffffffffffffffffffffff1614151561311c57600080fd5b61316f6001600360008573ffffffffffffffffffffffffffffffffffffffff1673ffffffffffffffffffffffffffffffffffffffff1681526020019081526020016000205461372790919063ffffffff16565b600360008473ffffffffffffffffffffffffffffffffffffffff1673ffffffffffffffffffffffffffffffffffffffff1681526020019081526020016000208190555060006001600083815260200190815260200160002060006101000a81548173ffffffffffffffffffffffffffffffffffffffff021916908373ffffffffffffffffffffffffffffffffffffffff1602179055505050565b600073ffffffffffffffffffffffffffffffffffffffff166001600083815260200190815260200160002060009054906101000a900473ffffffffffffffffffffffffffffffffffffffff1673ffffffffffffffffffffffffffffffffffffffff1614151561327757600080fd5b816001600083815260200190815260200160002060006101000a81548173ffffffffffffffffffffffffffffffffffffffff021916908373ffffffffffffffffffffffffffffffffffffffff16021790555061331c6001600360008573ffffffffffffffffffffffffffffffffffffffff1673ffffffffffffffffffffffffffffffffffffffff1681526020019081526020016000205461374890919063ffffffff16565b600360008473ffffffffffffffffffffffffffffffffffffffff1673ffffffffffffffffffffffffffffffffffffffff168152602001908152602001600020819055505050565b606060008060606000808614156133b1576040805190810160405280600181526020017f300000000000000000000000000000000000000000000000000000000000000081525094506134b1565b8593505b6000841415156133db578280600101935050600a848115156133d357fe5b0493506133b5565b826040519080825280601f01601f19166020018201604052801561340e5781602001602082028038833980820191505090505b5091506001830390505b6000861415156134ad57600a8681151561342e57fe5b066030017f01000000000000000000000000000000000000000000000000000000000000000282828060019003935081518110151561346957fe5b9060200101907effffffffffffffffffffffffffffffffffffffffffffffffffffffffffffff1916908160001a905350600a868115156134a557fe5b049550613418565b8194505b50505050919050565b6000806134dc8573ffffffffffffffffffffffffffffffffffffffff16613769565b15156134eb57600191506136d3565b8473ffffffffffffffffffffffffffffffffffffffff1663150b7a02338887876040518563ffffffff167c0100000000000000000000000000000000000000000000000000000000028152600401808573ffffffffffffffffffffffffffffffffffffffff1673ffffffffffffffffffffffffffffffffffffffff1681526020018473ffffffffffffffffffffffffffffffffffffffff1673ffffffffffffffffffffffffffffffffffffffff16815260200183815260200180602001828103825283818151815260200191508051906020019080838360005b838110156135e05780820151818401526020810190506135c5565b50505050905090810190601f16801561360d5780820380516001836020036101000a031916815260200191505b5095505050505050602060405180830381600087803b15801561362f57600080fd5b505af1158015613643573d6000803e3d6000fd5b505050506040513d602081101561365957600080fd5b8101908080519060200190929190505050905063150b7a027c0100000000000000000000000000000000000000000000000000000000027bffffffffffffffffffffffffffffffffffffffffffffffffffffffff1916817bffffffffffffffffffffffffffffffffffffffffffffffffffffffff19161491505b50949350505050565b60005b60208210151561370457825184526020840193506020830192506020820391506136df565b6001826020036101000a0390508019835116818551168181178652505050505050565b60008083831115151561373957600080fd5b82840390508091505092915050565b600080828401905083811015151561375f57600080fd5b8091505092915050565b600080823b905060008111915050919050565b60a06040519081016040528060608152602001606081526020016060815260200160608152602001606081525090565b6040805190810160405280600081526020016000815250905600a165627a7a723058206ae2f568783d038304848adb4a0a382b8e7a54ed988e268bfe1b4fe0dc8d1a660029",
    "source": "pragma solidity ^0.4.23;\n\nimport '../node_modules/openzeppelin-solidity/contracts/token/ERC721/ERC721.sol';\nimport './strings.sol';\nimport './Console.sol';\nimport {IterableMapping} from './iterable_mapping.sol';\n\ncontract StarNotary is ERC721,Console {\n  using strings for *;\n  using IterableMapping for IterableMapping.itmap;\n  IterableMapping.itmap public starsForSale;\n\n  function addStarForSale(uint _key, uint _value) public {\n    starsForSale.insert(_key,_value);\n  }\n\n  function getPriceByStarTokenID(uint _tokenId) public returns(uint){\n    return starsForSale.getValueByKey(_tokenId);\n  }\n\n  struct Star {\n    string name;\n    string ra;\n    string dec;\n    string mag;\n    // StarCoordinators coordinator;\n    string starStory;\n  }\n\n  struct StarCoordinators{\n    string ra;\n    string dec;\n    string mag;\n  }\n\n  mapping(uint256 => Star) public tokenIdToStarInfo;\n  /* mapping(uint256 => uint256) public starsForSale; */\n  //a map to store coordinates info to keep uniqless ,concact\n\n  //using bytes32 to store uniqinfo generate \"0.32.155+121.874+245.978\" like key\n  mapping(bytes32 => uint256) public coordinatorToTokenId;\n\n  //for test\n  mapping(address => bytes32) public addressToCodBytes32;\n\n  //nonce\n  mapping (address => uint) public nonces;\n\n   modifier onlyMetaTx() {\n        require(msg.sender == address(this));\n        _;\n    }\n\nfunction createStarMeta(string _name, string _ra, string _dec,string _mag,string _starstory,uint256 _tokenId, address _owner) onlyMetaTx public {\n         //web3.js not support return a struct inside a struct to test\n    // require(\n    //   !checkIfStarExist(_ra,_dec,_mag),\n    //   \"Star already Exist!\"\n    // );\n\n    // string memory coordinateCombine = _ra.toSlice().concat(_dec.toSlice()).toSlice().concat(_mag.toSlice());\n    // bytes32  bytesCoordinateCombine = stringToBytes32(coordinateCombine);\n\n    // coordinatorToTokenId[bytesCoordinateCombine] = _tokenId;\n    // Star memory newStar = Star(_name,_ra,_dec,_mag,_starstory);\n    // tokenIdToStarInfo[_tokenId] = newStar;\n    // addressToCodBytes32[_owner] = bytesCoordinateCombine;\n    // _mint(_owner, _tokenId);\n}\n\n  function createStar(string _name, string _ra, string _dec,string _mag,string _starstory,uint256 _tokenId) public {\n    createStarMeta(_name,_ra,_dec,_mag,_starstory,_tokenId,msg.sender);\n  }\n\n  function execute(\n        uint8 _v, bytes32 _r, bytes32 _s,\n        address _from, address _to,\n        uint _value, bytes _data,\n        address _rewardType, uint _rewardAmount) public {\n\n        bytes32 hash = keccak256(abi.encodePacked(address(this), _from, _to, _value, _data,\n            _rewardType, _rewardAmount, nonces[_from]++));\n\n        // require(ecrecover(\n        //     keccak256(abi.encodePacked(\"\\x19Ethereum Signed Message:\\n32\", hash)), _v, _r, _s) == _from);\n\n        // Below is not used. Love should be free!\n        // ---------------------------------------\n        // if(_rewardAmount > 0) {\n        //     if(_rewardType == address(0)){\n        //         //pay fee with ether\n        //         require(msg.sender.call.value(_rewardAmount)());\n        //     } else {\n        //         //pay fee with tokens\n        //         require((ERC20(_rewardType)).transfer(msg.sender, _rewardAmount));\n        //     }\n        // }\n\n        require(_to.call.value(_value)(_data));\n}\n\n  function checkIfStarExist(string _ra,string _dec,string _mag) view returns (bool){\n     //concate star coordinator to a string\n    string  memory coordinatorCombine = _ra.toSlice().concat(_dec.toSlice()).toSlice().concat(_mag.toSlice());\n    bytes32 bytesCoordnatorCombin = stringToBytes32(coordinatorCombine);\n\n    if(coordinatorToTokenId[bytesCoordnatorCombin] == 0){\n      return false;\n     }else{\n      return true;\n     }\n  }\n\n  function stringToBytes32(string source) internal returns (bytes32 result){\n    assembly{\n       result :=mload(add(source,32))\n    }\n    \n  }\n\n  function putStarUpForSale(uint256 _tokenId, uint256 _price) public {\n    require(this.ownerOf(_tokenId) == msg.sender);\n\n    /* starsForSale[_tokenId] = _price; */\n    addStarForSale(_tokenId,_price);\n\n  }\n\n//   function checkStarUniqlessByCoordinator()\n\n  function buyStar(uint256 _tokenId) public payable {\n    require(getPriceByStarTokenID(_tokenId) > 0);\n\n    uint256 starCost = getPriceByStarTokenID(_tokenId);\n    address starOwner = this.ownerOf(_tokenId);\n    require(msg.value >= starCost);\n\n    _removeTokenFrom(starOwner, _tokenId);\n    _addTokenTo(msg.sender, _tokenId);\n\n    starOwner.transfer(starCost);\n\n    if(msg.value > starCost) {\n      msg.sender.transfer(msg.value - starCost);\n      }\n  }\n\n  function mint(address to,uint256 tokenId) internal{\n    _mint(to,tokenId);\n  }\n\n  function _approve(address to, uint256 tokenId) public{\n    approve(to,tokenId);\n  }\n\n  function _safeTransferFrom(address from,address to,uint256 tokenId) public{\n    safeTransferFrom(from,to,tokenId);\n  }\n\n  function _setApprovalForAll(address to, bool approved) public {\n    setApprovalForAll(to,approved);\n  }\n\n  function _getApproved(uint256 tokenId) public view returns (address) {\n    return getApproved(tokenId);\n  }\n\n  function _isApprovedForAll(\n    address owner,\n    address operator\n  ) public view returns(bool){\n      isApprovedForAll(owner,operator);\n  }\n\n  function _ownerOf(uint256 tokenId) public view returns (address) {\n    return ownerOf(tokenId);\n  }\n\n// convert uint star token to string for showing the forsale stars.\n  function uint2str(uint i) internal pure returns (string){\n    if (i == 0) return \"0\";\n    uint j = i;\n    uint length;\n    while (j != 0){\n        length++;\n        j /= 10;\n    }\n    bytes memory bstr = new bytes(length);\n    uint k = length - 1;\n    while (i != 0){\n        bstr[k--] = byte(48 + i % 10);\n        i /= 10;\n    }\n    return string(bstr);\n}\n\n  function starsForSale() public returns (string) {\n    string memory result = \"\";\n     for(uint i = IterableMapping.iterate_start(starsForSale); IterableMapping.iterate_valid(starsForSale, i); i = IterableMapping.iterate_next(starsForSale, i)){\n         (uint key, uint value) = IterableMapping.iterate_get(starsForSale, i);\n         string memory starTokenId = uint2str(key);\n         result = result.toSlice().concat(starTokenId.toSlice()).toSlice().concat('_'.toSlice());\n     }\n     return result;\n  }\n\n  function _starsForSale(uint _tokenId)  view returns (uint){\n    return starsForSale.getValueByKey(_tokenId);\n  }\n\n  function _tokenIdToStarInfo(uint _tokenId) view returns (string,string,string,string,string){\n    Star memory star = tokenIdToStarInfo[_tokenId];\n    return (star.name,star.starStory,star.ra,star.dec,star.mag);\n  }\n}\n",
    "sourcePath": "/Volumes/Transcend/udacity/project/Project5-startercode/Project5-BoilerplatewithZeppelin/smart_contracts/contracts/StarNotary.sol",
    "compiler": {
        "name": "solc",
        "version": "0.4.24+commit.e67f0147.Emscripten.clang"
    },
    "schemaVersion": "2.0.1",
    "updatedAt": "2018-10-21T02:23:49.884Z"
}